:02000000412A93
:06000600000000000800EC
:0E000C00213083120313FD00FD0B0A280800AB
:10001A000F3083120313FC004730FD00FD0B132839
:0A002A00FC0B132800000000080082
:10003400831603139818202800001A2854088312E2
:040044009900080017
:1000480083160313D41B2B28831288132D2883129D
:1000580088178316541B33288312081335288312F4
:1000680008178316D41A3B28831288123D28831256
:1000780088168316541A43288312081245288312B7
:1000880008166F18492808154A28081188150320EA
:1000980088118316D419532883128813552883127C
:1000A8008817831654195B28831208135D28831256
:1000B80008178316D41863288312881265288312B8
:1000C8008816831654186B28831208126D28831219
:1000D80008166F187128081572280811881503204A
:0E00E80088116F1C79280D207A280620080048
:1000F60083160313D301510884000008D200520866
:10010600003A031991285208D4001A208316D30AFC
:0E0116005308510784000008D2008228080018
:10012400831203136F1083165108D40024206F1414
:020134000800C1
:1001360083160313881108110812881208138813EE
:1001460083128811081188130813881208120D20CB
:100156000D200D20881608168815032088110D20FD
:100166008815032088110D208815032088110D207D
:1001760008128815032088110D2088150320881180
:10018600881288178815032088110D2088130816F1
:1001960088150320881108128815032088110D2060
:1001A60088150320881108168815032088110D204C
:1001B600081288150320881188170817881608164C
:0C01C6008815032088110D206F1408001C
:0E01D200831203136E088A006D088200080075
:1001E0000229803083160313CD001529C030CD00BD
:1001F00015299430CD001529D430CD001529803033
:10020000CD001529831603134D08013A0319F1286F
:100210004D08023A0319F6284D08033A0319F92844
:100220004D08043A0319FC28FF284E03F0004D083E
:10023000F0077008CD007008D40024206F108316DA
:10024000D00150084F0784000008031930295008D6
:100250004F0784000008D10092208316D00A21297C
:0602600083126F14080078
:100266003B3083160313D1007B200B30FB00263076
:10027600FC005D30FD00FD0B3E29FC0B3E29FB0B0F
:100286003E29000000004630D1007B200B30FB00E9
:100296002630FC005D30FD00FD0B4F29FC0B4F297D
:1002A600FB0B4F29000000004D08D1007B201A30BF
:1002B600D4001A200B30FB002630FC005D30FD0018
:1002C600FD0B6329FC0B6329FB0B6329000000006F
:0202D60008001E
:1002D800831603134D08F000F00D7010F00D701028
:1002E800F00D70100130700483129F000630FC007E
:1002F8003030FD00FD0B7E29FC0B7E2900001F1508
:100308001F1D872984291E08F100F00183161E0885
:08031800F0070318F10A0800C8
:10032000831603139816903083129800831687174C
:10033000071383128C1E9F291A08F00099290800C0
:10034000831203130615861101308316CD00013088
:10035000CE002030CF00F0200630FB001330FC0030
:10036000AD30FD00FD0BB229FC0BB229FB0BB2290D
:060370000000000008007F
:10037600831203130611861501308316CD00013052
:10038600CE002E30CF00F0200630FB001330FC00EC
:10039600AD30FD00FD0BCD29FC0BCD29FB0BCD2986
:0603A60000000000080049
:0A03AC0083120313061186110800E6
:1003B6000330831603138600831286019B200130C7
:1003C6008316D40024200C308316D4002420333026
:1003D60083169900181590210230FB000430FC00AA
:1003E600BA30FD00FD0BF529FC0BF529FB0BF529B1
:1003F6000000803083169F008312061186110800C4
:1004060083160313CD016C217108023C031D0D2ACE
:100416007008003C0318342A0130D400242001302F
:100426008316CD000130CE005E30CF00F0200230C2
:100436008316CD000130CE005D30CF00F020A03015
:100446008316CD0033213330FB00BB30FC00DF3098
:10045600FD00FD0B2C2AFC0B2C2AFB0B2C2A000082
:04046600000008008A
:10046A00E9208A110A128000840AED0A0319EE0AA9
:08047A00F003031D352A080000
:10048200D022DB21831203130618492AA0214E2A07
:1004920086184D2ABB214E2AD6210322432A502AEE
:1005A000203084004D3083120313F0005630ED00EC
:1005B0000230EE003522A03084002D308312F0008E
:0C05C000A330ED000230EE0035220800F0
:1004AC0064346F346F347234203463346C346F348E
:0C04BC007334733469346E3467340034D8
:1004C80064346F346F34723420346F34703465346C
:0A04D8006E3469346E34673400346A
:1004E200413454342B3443344D34473446343D3450
:0604F20031340D3400342A
:1004F800413454342B3443344D34473453343D342D
:1005080022342B34313432343334343435343634C1
:0E051800373438343934303422340D34003462
:0205260000349F
:100528004C3469346D346934743420344534783447
:0E0538006334653465346434653464340034EF
:10054600433475347234723465346E347434203402
:100556006C3469346D3469347434203465347834D9
:100566006334653465346434653464342C3420343F
:1005760063346934723463347534693474342034C2
:1005860064346934733463346F346E346E34653472
:0A05960063347434653464340034B7
:02400E007A3BFB
:00000001FF
